:100000000C9446000C9465000C9465000C946500FB
:100010000C9465000C9465000C9465000C946500CC
:100020000C9465000C9465000C9465000C946500BC
:100030000C9465000C944E020C9465000C946500C1
:100040000C9465000C9465000C9465000C9465009C
:100050000C9465000C9465000C9465000C9465008C
:100060000C9465000C9465000C9465000C9465007C
:100070000C9465000C9465000C9465000C9465006C
:100080000C9465000C9465000C94650011241FBE4F
:10009000CFEFD0E4DEBFCDBF11E0A0E0B1E0E8E9F2
:1000A000F9E000E00BBF02C007900D92A231B1074A
:1000B000D9F721E0A2E1B1E001C01D92A232B2075E
:1000C000E1F70E94C5030C94CA040C940000CF937E
:1000D000DF93CDB7DEB781E00E948E000000DF9194
:1000E000CF910895CF93DF93CDB7DEB784E690E04C
:1000F0000E94320188E30E948E0086E00E948E00FA
:100100008FE00E948E0081E00E948E008AE090E0E5
:100110000E9432010000DF91CF910895CF93DF93C9
:100120001F92CDB7DEB789838BE290E02BE230E0FF
:10013000F90120812F7BFC01208388E290E0298156
:10014000FC0120838BE290E02BE230E0F90120817A
:100150002068FC01208300008BE290E02BE230E07D
:10016000F90120812F77FC01208382E090E00E943A
:10017000320100000F90DF91CF910895CF93DF936C
:100180001F92CDB7DEB789838BE290E02BE230E09F
:10019000F90120812064FC01208388E290E029811C
:1001A000FC0120838BE290E02BE230E0F90120811A
:1001B0002068FC01208300008BE290E02BE230E01D
:1001C000F90120812F77FC01208381E090E00E94DB
:1001D000320100000F90DF91CF910895CF93DF930C
:1001E00000D000D0CDB7DEB78A837C836B830E94BA
:1001F00067008A81898311C0898191E0980F998372
:100200000E941B018B819C819C012F5F3F4F3C838F
:100210002B83FC0180810E94BE008B819C81FC01AC
:100220008081882349F700000F900F900F900F9066
:10023000DF91CF910895CF93DF931F92CDB7DEB7B3
:1002400089838981813128F4898181580E948E00B7
:1002500004C0898181550E948E0000000F90DF91BB
:10026000CF910895CF93DF9300D000D000D0CDB7C9
:10027000DEB79E838D831A82198213C01C821B8273
:1002800006C000008B819C8101969C838B838B81AF
:100290009C8187309340ACF389819A8101969A833F
:1002A000898329813A818D819E812817390734F30A
:1002B000000026960FB6F894DEBF0FBECDBFDF91CB
:1002C000CF910895CF93DF9300D01F92CDB7DEB7C3
:1002D00089837B836A8389818A3031F48A819B8117
:1002E000BC018DE00E94620180EC90E0FC01808105
:1002F000882F90E080729927892BB1F386EC90E0EB
:100300002981FC01208380E090E00F900F900F90F6
:10031000DF91CF910895CF93DF9300D01F92CDB797
:10032000DEB789836A834B838B81882371F08A814E
:10033000282F30E081E090E002C0880F991F2A95B5
:10034000E2F7982F8981892B0EC08A81282F30E00F
:1003500081E090E002C0880F991F2A95E2F7982F5C
:100360009095898189230F900F900F90DF91CF9105
:100370000895CF93DF9300D0CDB7DEB789836A832A
:100380008A81282F30E081E090E002C0880F991F19
:100390002A95E2F7982F898189230F900F90DF919A
:1003A000CF910895CF93DF9300D000D0CDB7DEB7C3
:1003B00069837A838B839C8389819A81AB81BC8199
:1003C00080930E0190930F01A0931001B09311013F
:1003D00080910E0190910F01A0911001B091110137
:1003E0008093130190931401A0931501B09316010B
:1003F00000000F900F900F900F90DF91CF91089514
:10040000CF93DF93CDB7DEB781E890E02BE0FC011E
:10041000208388E890E02DE730E0FC0131832083E1
:100420008FE690E022E0FC01208384E890E0FC016C
:100430001182108280910E0190910F01A091100104
:10044000B09111018093130190931401A0931501B1
:10045000B09316018FE590E02FE530E0F90120819F
:100460002068FC0120830000DF91CF910895CF9395
:10047000DF93CDB7DEB781E890E0FC011082000089
:10048000DF91CF910895CF93DF93CDB7DEB781E0B1
:10049000809312010000DF91CF9108951F920F9277
:1004A00000905F000F92112400905B000F922F9339
:1004B0003F934F935F936F937F938F939F93AF93EC
:1004C000BF93EF93FF93CF93DF93CDB7DEB78091C8
:1004D000130190911401A0911501B091160101979B
:1004E000A109B1098093130190931401A093150100
:1004F000B09316018091130190911401A091150100
:10050000B0911601892B8A2B8B2B91F40E94430208
:1005100080910E0190910F01A0911001B0911101F5
:100520008093130190931401A0931501B0931601C9
:100530000000DF91CF91FF91EF91BF91AF919F911B
:100540008F917F916F915F914F913F912F910F907C
:1005500000925B000F9000925F000F901F90189523
:10056000CF93DF93CDB7DEB788E290E02FEEFC01AA
:100570002083000086E290E0FC01808160E00E9420
:10058000B901882311F481E3B8C086E290E0FC0150
:10059000808161E00E94B901882311F484E3ADC039
:1005A00086E290E0FC01808162E00E94B90188232C
:1005B00011F487E3A2C086E290E0FC01808163E051
:1005C0000E94B901882311F48AE297C088E290E082
:1005D0002FEDFC012083000086E290E0FC01808189
:1005E00060E00E94B901882311F482E386C086E2AC
:1005F00090E0FC01808161E00E94B901882311F440
:1006000085E37BC086E290E0FC01808162E00E948D
:10061000B901882311F488E370C086E290E0FC0100
:10062000808163E00E94B901882311F480E365C0F2
:1006300088E290E02FEBFC012083000086E290E04E
:10064000FC01808160E00E94B901882311F483E3FA
:1006500054C086E290E0FC01808161E00E94B90113
:10066000882311F486E349C086E290E0FC01808192
:1006700062E00E94B901882311F489E33EC086E25A
:1006800090E0FC01808163E00E94B901882311F4AD
:1006900083E233C088E290E02FE7FC012083000072
:1006A00086E290E0FC01808160E00E94B90188232D
:1006B00011F481E422C086E290E0FC01808161E0D7
:1006C0000E94B901882311F482E417C086E290E009
:1006D000FC01808162E00E94B901882311F483E467
:1006E0000CC086E290E0FC01808163E00E94B901C9
:1006F000882311F484E401C080E0DF91CF91089554
:10070000CF93DF9300D01F92CDB7DEB79B838A8350
:100710000E94B00289838A819B81009719F001971A
:1007200061F016C08981882329F081E090E09B83E5
:100730008A8311C01B821A820EC08981882319F412
:100740001B821A8208C081E090E09B838A8303C0E9
:100750001B821A8200008A819B81009719F0019701
:1007600031F00BC085E290E0FC01108206C085E20A
:1007700090E020E8FC01208300008A819B810F909B
:100780000F900F90DF91CF9108950F931F93CF9308
:10079000DF93CDB7DEB727970FB6F894DEBF0FBE55
:1007A000CDBF84E290E02FEFFC01208385E290E052
:1007B000FC01108287E290E020EFFC01208388E2B8
:1007C00090E02FE0FC01208387E191E09F838E83FE
:1007D00081E090E09C838B838FEF8D838D8180936C
:1007E000170184E690E0A0E0B0E0809318019093B8
:1007F0001901A0931A01B0931B01809118019091E7
:100800001901A0911A01B0911B0180931C019093D2
:100810001D01A0931E01B0931F0180E893E0909307
:1008200021018093200164E670E080E090E00E9466
:10083000D2010E9400021A8219829CC089819A8189
:10084000880F991F9E012F5F3F4F820F931F0596C0
:10085000FC0180819181FC01258136814781508591
:1008600089819A81880F991FBE016F5F7F4F860F24
:10087000971F0596FC0180819181FC018181928105
:10088000A381B481281739074A075B0709F045C0DF
:1008900089819A81880F991F9E012F5F3F4F820F98
:1008A000931F0596FC010081118189819A81880F2F
:1008B000991F9E012F5F3F4F820F931F0596FC01EA
:1008C00080819181FC012185328589819A81880FFF
:1008D000991FAE014F5F5F4F840F951F0596FC0176
:1008E00080819181FC018081082E000C990BF90117
:1008F0000995F801808389819A81880F991F9E014B
:100900002F5F3F4F820F931F0596FC0180819181DD
:10091000FC01158216821782108689819A81880FC0
:10092000991F9E012F5F3F4F820F931F0596FC0179
:100930002081318189819A81880F991FAE014F5F93
:100940005F4F840F951F0596FC0180819181FC010A
:1009500085819681A781B0858C599F4FAF4FBF4F3E
:10096000F90185839683A783B08789819A8101964F
:100970009A83898329813A818B819C812817390741
:1009800008F45CCF0000809112018823E1F31092FB
:08099000120151CFF894FFCFD2
:1009980000000002000000006201000000000100E9
:0209A80000004D
:00000001FF
