:100000000C9446000C9465000C9465000C946500FB
:100010000C9465000C9465000C9465000C946500CC
:100020000C9465000C9465000C9465000C946500BC
:100030000C9465000C944E020C9465000C946500C1
:100040000C9465000C9465000C9465000C9465009C
:100050000C9465000C9465000C9465000C9465008C
:100060000C9465000C9465000C9465000C9465007C
:100070000C9465000C9465000C9465000C9465006C
:100080000C9465000C9465000C94650011241FBE4F
:10009000CFEFD0E4DEBFCDBF11E0A0E0B1E0E4E6F9
:1000A000F0E100E00BBF02C007900D92AC32B10747
:1000B000D9F721E0ACE2B1E001C01D92AF34B20744
:1000C000E1F70E945C050C9430080C940000CF937B
:1000D000DF93CDB7DEB781E00E948E000000DF9194
:1000E000CF910895CF93DF93CDB7DEB784E690E04C
:1000F0000E94320188E30E948E0086E00E948E00FA
:100100008FE00E948E0081E00E948E008AE090E0E5
:100110000E9432010000DF91CF910895CF93DF93C9
:100120001F92CDB7DEB789838BE290E02BE230E0FF
:10013000F90120812F7BFC01208388E290E0298156
:10014000FC0120838BE290E02BE230E0F90120817A
:100150002068FC01208300008BE290E02BE230E07D
:10016000F90120812F77FC01208382E090E00E943A
:10017000320100000F90DF91CF910895CF93DF936C
:100180001F92CDB7DEB789838BE290E02BE230E09F
:10019000F90120812064FC01208388E290E029811C
:1001A000FC0120838BE290E02BE230E0F90120811A
:1001B0002068FC01208300008BE290E02BE230E01D
:1001C000F90120812F77FC01208381E090E00E94DB
:1001D000320100000F90DF91CF910895CF93DF930C
:1001E00000D000D0CDB7DEB78A837C836B830E94BA
:1001F00067008A81898311C0898191E0980F998372
:100200000E941B018B819C819C012F5F3F4F3C838F
:100210002B83FC0180810E94BE008B819C81FC01AC
:100220008081882349F700000F900F900F900F9066
:10023000DF91CF910895CF93DF931F92CDB7DEB7B3
:1002400089838981813128F4898181580E948E00B7
:1002500004C0898181550E948E0000000F90DF91BB
:10026000CF910895CF93DF9300D000D000D0CDB7C9
:10027000DEB79E838D831A82198213C01C821B8273
:1002800006C000008B819C8101969C838B838B81AF
:100290009C8187309340ACF389819A8101969A833F
:1002A000898329813A818D819E812817390734F30A
:1002B000000026960FB6F894DEBF0FBECDBFDF91CB
:1002C000CF910895CF93DF9300D01F92CDB7DEB7C3
:1002D00089837B836A8389818A3031F48A819B8117
:1002E000BC018DE00E94620180EC90E0FC01808105
:1002F000882F90E080729927892BB1F386EC90E0EB
:100300002981FC01208380E090E00F900F900F90F6
:10031000DF91CF910895CF93DF9300D01F92CDB797
:10032000DEB789836A834B838B81882371F08A814E
:10033000282F30E081E090E002C0880F991F2A95B5
:10034000E2F7982F8981892B0EC08A81282F30E00F
:1003500081E090E002C0880F991F2A95E2F7982F5C
:100360009095898189230F900F900F90DF91CF9105
:100370000895CF93DF9300D0CDB7DEB789836A832A
:100380008A81282F30E081E090E002C0880F991F19
:100390002A95E2F7982F898189230F900F90DF919A
:1003A000CF910895CF93DF9300D000D0CDB7DEB7C3
:1003B00069837A838B839C8389819A81AB81BC8199
:1003C00080930E0190930F01A0931001B09311013F
:1003D00080910E0190910F01A0911001B091110137
:1003E00080932D0190932E01A0932F01B0933001A3
:1003F00000000F900F900F900F90DF91CF91089514
:10040000CF93DF93CDB7DEB781E890E02BE0FC011E
:10041000208388E890E02DE730E0FC0131832083E1
:100420008FE690E022E0FC01208384E890E0FC016C
:100430001182108280910E0190910F01A091100104
:10044000B091110180932D0190932E01A0932F0163
:10045000B09330018FE590E02FE530E0F901208185
:100460002068FC0120830000DF91CF910895CF9395
:10047000DF93CDB7DEB781E890E0FC011082000089
:10048000DF91CF910895CF93DF93CDB7DEB781E0B1
:1004900080932C010000DF91CF9108951F920F925D
:1004A00000905F000F92112400905B000F922F9339
:1004B0003F934F935F936F937F938F939F93AF93EC
:1004C000BF93EF93FF93CF93DF93CDB7DEB78091C8
:1004D0002D0190912E01A0912F01B0913001019733
:1004E000A109B10980932D0190932E01A0932F01B2
:1004F000B093300180912D0190912E01A0912F0198
:10050000B0913001892B8A2B8B2B91F40E944302EE
:1005100080910E0190910F01A0911001B0911101F5
:1005200080932D0190932E01A0932F01B093300161
:100530000000DF91CF91FF91EF91BF91AF919F911B
:100540008F917F916F915F914F913F912F910F907C
:1005500000925B000F9000925F000F901F90189523
:10056000CF93DF93CDB7DEB788E290E02FEEFC01AA
:100570002083000086E290E0FC01808160E00E9420
:10058000B901882311F481E3B8C086E290E0FC0150
:10059000808161E00E94B901882311F484E3ADC039
:1005A00086E290E0FC01808162E00E94B90188232C
:1005B00011F487E3A2C086E290E0FC01808163E051
:1005C0000E94B901882311F48AE297C088E290E082
:1005D0002FEDFC012083000086E290E0FC01808189
:1005E00060E00E94B901882311F482E386C086E2AC
:1005F00090E0FC01808161E00E94B901882311F440
:1006000085E37BC086E290E0FC01808162E00E948D
:10061000B901882311F488E370C086E290E0FC0100
:10062000808163E00E94B901882311F480E365C0F2
:1006300088E290E02FEBFC012083000086E290E04E
:10064000FC01808160E00E94B901882311F483E3FA
:1006500054C086E290E0FC01808161E00E94B90113
:10066000882311F486E349C086E290E0FC01808192
:1006700062E00E94B901882311F489E33EC086E25A
:1006800090E0FC01808163E00E94B901882311F4AD
:1006900083E233C088E290E02FE7FC012083000072
:1006A00086E290E0FC01808160E00E94B90188232D
:1006B00011F481E422C086E290E0FC01808161E0D7
:1006C0000E94B901882311F482E417C086E290E009
:1006D000FC01808162E00E94B901882311F483E467
:1006E0000CC086E290E0FC01808163E00E94B901C9
:1006F000882311F484E401C080E0DF91CF91089554
:100700000F931F93CF93DF9300D000D0CDB7DEB708
:1007100069837A838B839C83809135019091360124
:10072000A0913701B09138019C01AD0169817A81B6
:100730008B819C810E949C06882309F477C020E06D
:1007400030E0A90169817A818B819C810E949C069D
:10075000882351F481E990E021E930E0F90120811A
:100760002870FC01208309C081E990E021E930E094
:10077000F90120812360FC01208328E539E344E767
:100780005FE369817A818B819C810E949C0688232A
:1007900044F488E990E02FEF3FEFFC0131832083A0
:1007A00034C020E034E244EF56E469817A818B81E1
:1007B0009C810E94BE07181634F488E990E0FC0181
:1007C0001182108222C008E910E020E030E040E011
:1007D00053E469817A818B819C810E94C307DC018B
:1007E000CB019C01AD0160E074E284EF9AE40E94C9
:1007F000A106DC01CB01BC01CD010E941307DC0185
:10080000CB010197F8019183808384E990E0FC019A
:100810001182108289819A81AB81BC8180933501DC
:1008200090933601A0933701B093380100000F90E8
:100830000F900F900F90DF91CF911F910F9108951E
:10084000CF93DF93CDB7DEB780E990E020E4FC01E1
:10085000208381E990E02BE0FC01208360E070E0E0
:10086000CB010E9480030000DF91CF910895CF93C8
:10087000DF93CDB7DEB780E990E0FC01108281E91B
:1008800090E0FC0110820000DF91CF910895CF939A
:10089000DF9300D01F92CDB7DEB79B838A830E947F
:1008A000B00289838A819B818230910509F44EC010
:1008B000833091052CF4009759F00197E9F059C065
:1008C0008330910509F44FC0049709F44FC051C01B
:1008D0008981833229F481E090E09B838A834CC034
:1008E00080913201813029F484E090E09B838A83F7
:1008F00043C01B821A8240C080913101882F90E052
:100900008E5E9E4FFC0190818981981791F48981B8
:10091000853329F483E090E09B838A832DC082E0B5
:1009200090E09B838A83809131018F5F80933101B6
:1009300023C08981882329F084E090E09B838A8307
:100940001BC081E090E09B838A8316C08981882345
:1009500029F481E090E09B838A830EC082E090E0DE
:100960009B838A8309C01B821A8206C01B821A825B
:1009700003C01B821A8200008A819B81833091050B
:1009800019F0049749F00FC085E290E021E0FC01E6
:1009900020831092310107C085E290E0FC011082B3
:1009A0001092310100008A819B810F900F900F906F
:1009B000DF91CF910895CF93DF9300D0CDB7DEB70D
:1009C0009A83898389819A818130910591F082305F
:1009D0009105D1F1892B09F043C080913201882320
:1009E00029F081E090E09A8389833DC01A821982C0
:1009F0003AC080913301853069F4809134018330AD
:100A000048F01092330182E090E09A83898310923B
:100A1000340129C080913401833060F0809133012A
:100A20008F5F8093330181E090E09A8389831092F5
:100A3000340119C081E090E09A8389838091340168
:100A40008F5F809334010FC080913201882319F4A5
:100A50001A82198208C082E090E09A83898303C0D9
:100A60001A821982000089819A818130910519F0DA
:100A70000297A9F01AC080913301882F90E0880F67
:100A8000991F880F991F895E9E4FFC01808191817B
:100A9000A281B381BC01CD010E94800306C060E049
:100AA00070E0CB010E948003000089819A810F9041
:100AB0000F90DF91CF9108950F931F93CF93DF9302
:100AC000CDB7DEB729970FB6F894DEBF0FBECDBF06
:100AD00081E290E0FC01108282E290E02FEFFC01C5
:100AE000208384E290E02FEFFC01208385E290E0F8
:100AF000FC01108287E290E020EFFC01208388E275
:100B000090E02FE0FC01208389E391E09F838E83B6
:100B100084E491E09987888782E090E09C838B83CE
:100B20008FEF8D838D818093390184E690E0A0E082
:100B3000B0E080933A0190933B01A0933C01B093C5
:100B40003D0180913A0190913B01A0913C01B0910F
:100B50003D0180933E0190933F01A0934001B093EB
:100B6000410187E494E090934301809342018D8199
:100B70008093440188EC90E0A0E0B0E080934501D0
:100B800090934601A0934701B0934801809145019D
:100B900090914601A0914701B0914801809349018D
:100BA00090934A01A0934B01B0934C018BED94E0DC
:100BB00090934E0180934D010E94200464E670E002
:100BC00080E090E00E94D2010E94000280E290E06A
:100BD000FC0180818095809332011A8219829CC029
:100BE00089819A81880F991F9E012F5F3F4F820F45
:100BF000931F0596FC0180819181FC01258136813E
:100C00004781508589819A81880F991FBE016F5F46
:100C10007F4F860F971F0596FC0180819181FC0113
:100C200081819281A381B481281739074A075B0724
:100C300008F445C089819A81880F991F9E012F5F12
:100C40003F4F820F931F0596FC010081118189811E
:100C50009A81880F991F9E012F5F3F4F820F931F2C
:100C60000596FC0180819181FC0121853285898175
:100C70009A81880F991FAE014F5F5F4F840F951FB8
:100C80000596FC0180819181FC018081082E000C79
:100C9000990BF9010995F801808389819A81880F60
:100CA000991F9E012F5F3F4F820F931F0596FC01F6
:100CB00080819181FC0115821682178210868981BC
:100CC0009A81880F991F9E012F5F3F4F820F931FBC
:100CD0000596FC012081318189819A81880F991FB5
:100CE000AE014F5F5F4F840F951F0596FC01808119
:100CF0009181FC0185819681A781B0858C599F4F98
:100D0000AF4FBF4FF90185839683A783B087898151
:100D10009A8101969A83898329813A818B819C816A
:100D20002817390708F45CCF000080912C01882334
:100D3000E1F310922C014ACF0E94490708F481E0A8
:100D400008950E94B5060C9484070E947D0758F010
:100D50000E94760740F029F45F3F29F00C946D075C
:100D600051110C94B8070C9473070E94950768F30F
:100D70009923B1F3552391F3951B550BBB27AA2754
:100D800062177307840738F09F5F5F4F220F331F8E
:100D9000441FAA1FA9F335D00E2E3AF0E0E832D056
:100DA00091505040E695001CCAF72BD0FE2F29D059
:100DB000660F771F881FBB1F261737074807AB072B
:100DC000B0E809F0BB0B802DBF01FF2793585F4FA0
:100DD0003AF09E3F510578F00C946D070C94B807DB
:100DE0005F3FE4F3983ED4F3869577956795B79582
:100DF000F7959F5FC9F7880F911D9695879597F98D
:100E00000895E1E0660F771F881FBB1F6217730705
:100E10008407BA0720F0621B730B840BBA0BEE1F1A
:100E200088F7E09508950E941A076894B1110C9410
:100E3000B80708950E949D0788F09F5798F0B92F32
:100E40009927B751B0F0E1F0660F771F881F991FFF
:100E50001AF0BA95C9F714C0B13091F00E94B707E3
:100E6000B1E008950C94B707672F782F8827B85FF3
:100E700039F0B93FCCF3869577956795B395D9F757
:100E80003EF490958095709561957F4F8F4F9F4F61
:100E90000895990F0008550FAA0BE0E8FEEF16160B
:100EA0001706E807F907C0F012161306E407F5075E
:100EB00098F0621B730B840B950B39F40A2661F0D2
:100EC000232B242B252B21F408950A2609F4A14075
:100ED000A6958FEF811D811D089597F99F6780E882
:100EE00070E060E008959FEF80EC089500240A947C
:100EF0001616170618060906089500240A941216F5
:100F00001306140605060895092E0394000C11F427
:100F1000882352F0BB0F40F4BF2B11F460FF04C0D4
:100F20006F5F7F4F8F4F9F4F089557FD9058440F2D
:100F3000551F59F05F3F71F04795880F97FB991F38
:100F400061F09F3F79F087950895121613061406F5
:100F5000551FF2CF4695F1DF08C016161706180682
:100F6000991FF1CF86957105610508940895E8945D
:100F7000BB2766277727CB0197F908950E94490779
:100F800008F48FEF08950E94D6070C9484070E94FE
:100F9000760738F00E947D0720F0952311F00C941D
:100FA0006D070C94730711240C94B8070E949507E1
:100FB00070F3959FC1F3950F50E0551F629FF001AC
:100FC000729FBB27F00DB11D639FAA27F00DB11DC5
:100FD000AA1F649F6627B00DA11D661F829F22274E
:100FE000B00DA11D621F739FB00DA11D621F839FD5
:100FF000A00D611D221F749F3327A00D611D231FAB
:10100000849F600D211D822F762F6A2F11249F57F8
:1010100050409AF0F1F088234AF0EE0FFF1FBB1FFB
:10102000661F771F881F91505040A9F79E3F5105BA
:1010300080F00C946D070C94B8075F3FE4F3983E82
:10104000D4F3869577956795B795F795E7959F5F64
:10105000C1F7FE2B880F911D9695879597F90895F6
:04106000F894FFCF32
:101064000000000200000000620100000000010016
:101074000000313233343500D02444A4F0F6431F49
:0C108400D5124400D002440000DC430000
:00000001FF
